:0400000017C0FECF58
:10000400FDCFFCCFFBCFFACFF9CFF8CFF7CFF6CFA8
:10001400F5CFF4CFF3CFF2CFF1CFF0CFEFCFEECFD8
:10002400EDCF01000100030026000000F894EE2744
:10003400ECBBE5BFF8E1A4B7A77FA4BFF1BDE1BD68
:100044008DE0A2E0ED938A95E9F780E8A0E6ED93D0
:100054008A95E9F7E8E2F0E085919591009761F0DF
:10006400A591B59105901590BF01F00105900D92F1
:100074000197E1F7FB01F0CFE0E0E3BBE4BBE5BBB4
:10008400EFEDEDBFC0E858C0E1E0E31580F4E9E02E
:10009400E31521F480D0E2E03E2E09C0C698C7984B
:1000A400C59A85E38A95F1F7C598C69A3394E1E039
:1000B400E31511F470D03394089590D007E0E4DF91
:1000C400C19830E03830CCF41C81E02FA12F75D0DA
:1000D4001E2FA12FB0E0A7FDBFEFE32FE00F75D0D7
:1000E400E03011F4C29801C0C29AC09A85E38A959F
:1000F400F1F7C09801503F5FE5CFC19A74D02596BF
:10010400089553D052D054D053D052D051D04DD062
:10011400EEE70FC0EFEF4FD0EFEF4DD0E8ED4BD04F
:10012400E8ED49D0E8ED47D0E0E045D0EBEF43D02F
:10013400EBEFEA93C2DF0895E0E8E6BDE0E0E6BD58
:10014400EBBBEABBE8E1E8BBE7EEE7BBE0E0E2BB20
:10015400E1BBE0BFE3BFE2BFE6BFECBFEFBDEEBD76
:10016400EDBDECBDE5BDE4BDEBBDEABDE9BDE8BD5B
:10017400EBBFE5BFE9BFEDB9EAB9E0E8E8B9E0E013
:10018400E1B9B39902C0BDDFFCCFB49902C0C2DFAC
:10019400FCCFF7CFFFCFC698C79AC59A85E38A9557
:1001A400F1F7C598C69AC7980895EEE7EA9385CF04
:1001B400E3ECEA9382CFEA9380CFEE230E2EEA2F6C
:1001C40019F0EE0F0A94E9F70895EE230E2EFD01BF
:1001D40021F0F595E7950A94E1F708953A932A9367
:1001E4001A930A9308953B812A81198108810895FD
:00000001FF
