:0A0000000C9452000C9400000C94C4
:10000A0000000C9400000C9400000C9400000C9466
:10001A0000000C9400000C9400000C9400000C9456
:10002A0000000C9400000C9400000C9400000C9446
:10003A0000000C9400000C9481000C9400000C94B5
:10004A0000000C9400000C9400000C9400000C9426
:10005A0000000C9400000C9418020C9400004F56F7
:10006A004552464C4F5700001027E80364000A0027
:10007A000100001000011000010000000102030449
:10008A0005060708090A0B0C2000070002000300F6
:10009A0084000100020394000000F894EE27EFBBED
:1000AA00F1E0F5BFE5BF8DE0A2E0BB27ED938A95AD
:1000BA00E9F780E098E0A0E0B1E0ED930197E9F775
:1000CA00E6E9F0E085919591009761F0A591B591E7
:1000DA0005901590BF01F00105900D920197E1F787
:1000EA00FB01F0CFE0E0EEBBEFEFEDBFE8E0EEBFE3
:1000FA00C0E0D3E00C94CA000A921A92FA926A9368
:10010A007A938A939A93AA93BA93EA93FA93EFB754
:10011A00EA93E6E0E6BDA0910603B0910703809159
:10012A00080390910903AF3FEFEFBE07E0E08E07A7
:10013A00E0E09E0759F0A6E0B3E00E94DC03EF5F1F
:10014A00FF4F6F4F7F4F0E94E10311C0E0E0E09341
:10015A000603E0930703E0930803E0930903E1E051
:10016A00E0930A03A8E6B0E00E949E03F894E9919E
:10017A00EFBFF991E991B991A991999189917991F1
:10018A006991F990199009901895E0E8E093610057
:10019A00E0E0E0936100E8E0E4B9E0E0E5B9E7B95E
:1001AA00E8B9EAB9EBB9E4BDE3E0E5BDE6E0E6BDEE
:1001BA00E0E0E7BDE8BDE0938000E0938100E093D2
:1001CA008500E0938400E0938700E0938600E09343
:1001DA008900E0938800E0938B00E0938A00E09323
:1001EA00B600E2E4E093B000E1E0E093B100E0E0C1
:1001FA00E093B200E093B400EFE0E093B300E1E0F3
:10020A00E0936E00E0E0E0936F00E0937000E0930B
:10021A006900EDBBE0936800E093C000E8E0E0937A
:10022A00C100E6E0E093C200E0E0E093C500E9E146
:10023A00E093C400E0E8E0BFE0E0E0937B00E093F5
:10024A007F00E0937A00ECBDA2E3B0E057D0789447
:10025A00E0E0E8B9AAE038D0E093C600A4E6B0E04E
:10026A0080E090E002D0F4CFFFCF0E94F5032497FC
:10027A000E94B3030E94BC030E94EB030E94B303D3
:10028A000E94BF03DF01CB01EC81FD816E817F817A
:10029A000E94FA0320F0E0910A03E03009F0ECCF63
:1002AA00E0910A03E03019F0E0E0E0930A032896AF
:1002BA000895AA931A9310E0E9811E1710F41F5F9C
:1002CA00FBCF188122960895AA931A930A9310E0F5
:1002DA000A81E1E2EA93E02FF0E0FA93EA93E1E09F
:1002EA00EA93E12FF0E0FA93EA93A1E033D0A4E68F
:1002FA00E0DFE12F198108810C94B103BA93AA9324
:10030A001A93F19AE7E0E0930203E0E0E093130323
:10031A00E0931403E0931503E0931603449A459A75
:10032A00E093BC00E091B900EC7FE093B900E98169
:10033A00FA81A0E4BFE10E94C9031E2F183008F019
:10034A0018501093B800E091BC00E078E564E0939F
:10035A00BC0001C2AA932497F19B62C0EA85EE0F02
:10036A00E0930B03E885F985E0930C03F0930D0302
:10037A00E0E0E0930003EF81E0930E03ED81FE815C
:10038A00E0930F03F0931003E0E0E0930103EC81A4
:10039A00E0931103E6E0E09302037894EF81E03002
:1003AA0079F0E885F9853097D9F1EC81E03021F0D0
:1003BA00AD81BE81109709F001C032C0F09A0DC01C
:1003CA00EC81E03039F1ED81FE81309749F1E0911D
:1003DA000B03E160E0930B03F098F198E091BC0005
:1003EA00EF70E06AE093BC00E0E2F1EA67E070E0F7
:1003FA000E94BC03F1990EC00E94E6033197604047
:10040A0070400E94BC0329F4E5E0E0930203F19AEC
:10041A0007C0F0CFA0910203E0E00E94C40301C02C
:10042A00E0E02B9608950A921A92FA926A937A93C6
:10043A008A939A93AA93BA93EA93FA93EFB7EA93B1
:10044A000E94FF03109101030091000330910E03F3
:10045A0020910203E12FA0910F03B0911003F0E065
:10046A00EA0FFB1FAF01E091B900E87FE83011F411
:10047A0020E002C0E03119F4E0910B0310C0E8312A
:10048A0011F0E83241F5031798F4E02F0F5FA091BD
:10049A000C03B0910D03F0E0AE0FBF1FEC91E09397
:1004AA00BB00E091BC00EF70E068E093BC0012C0B2
:1004BA00E09111031E1768F4E0910B03E160E093E9
:1004CA000B03F098E091BC00EF70E06AE093BC0087
:1004DA000DC138C00BC1E03531F4E091BB00DA013F
:1004EA00EC931F5F02C0E03489F4E0911103E150FC
:1004FA001E1728F0E091BC00EF70E06804C0E0919C
:10050A00BC00EF70E06CE093BC00F0C0E83531F459
:10051A00E091BB00DA01EC931F5F02C0E03209F4FC
:10052A0002C0E03309F402C0E83469F4203051F41F
:10053A00F09B03C0031728F005C0E09111031E17B2
:10054A0008F424E0CCC0E83331F422E0E091BC00A6
:10055A00EF70E068C8C0E83611F0E83711F422E01D
:10056A0005C0E03611F0E037A1F420E010E0F09881
:10057A00E0911203E03031F421E0E091BC00EF7029
:10058A00E06804C0E091BC00EF70E06CE093BC004E
:10059A00ADC0E03811F0E03939F5F09B02C021E036
:1005AA009EC0E091BB00DA01EC931F5FE091120359
:1005BA001E17C0F4E0911303F0911403309711F45D
:1005CA0026E08DC0A0E0E0911303F0911403099591
:1005DA00E03039F0E091BC00EF70E06CE093BC00D1
:1005EA0085C001C0F09A02C0E83809F402C0E839AF
:1005FA0039F4E091BC00EF70E068E093BC0076C08B
:10060A00E03AB1F4E091BC00EF70E06CE093BC001A
:10061A00F19AE0911303F0911403309739F0A1E0B5
:10062A00E0911303F0911403099501C026E05EC01E
:10063A00E03B11F422E002C0E83AB1F4E09115037C
:10064A00F0911603309759F0A0E0E0911503F0916C
:10065A00160309953E2FE03011F020E002C026E093
:10066A003EC000E0F09802C0E83BF9F4F09B02C0FB
:10067A0021E035C0E02F0F5FA0910C03B0910D036C
:10068A00F0E0AE0FBF1FEC91E093BB00031728F414
:10069A00E091BC00EF70E06C05C0F09AE091BC00FC
:1006AA00EF70E068E093BC0021C0E03C11F0E83C48
:1006BA0099F4E091BC00EF70E06CE093BC00E0912B
:1006CA001503F0911603309731F0A1E0E09115037C
:1006DA00F0911603099509C0E03041F423E0E09156
:1006EA00BC00EF70E06DE093BC00F19A1093010337
:1006FA00009300032093020330930E030E94060422
:10070A002696E991EFBFF991E991B991A991999149
:10071A00899179916991F990199009901895AA93FC
:10072A00E091C000E072E1F3E881E093C60021960F
:10073A000895BA93AA931A93E981FA813196E983C3
:10074A00FA833197E4911E2FE03019F0A12FE7DFE9
:10075A00F3CFAAE0E4DF188123960895E091060317
:10076A00F0910703609108037091090308950E94AC
:10077A00F0030895EA1BFB0B680B790B0895EA173F
:10078A00E1E009F0EE2708950024112490E1AA0F70
:10079A00BB1F001C111C0E1A1F0A18F40E0E1F1E76
:1007AA0001C0A1609A9599F7FD01D0010895ED91D4
:1007BA00FD916D917D9108957E936E93FE93EE93D4
:1007CA000895E881F9816A817B810895A881B981B8
:1007DA008A819B810895E883F9836A837B830895DC
:1007EA009A938A93BA93AA930895AE17BF07860776
:1007FA00970708955A934A933A932A931A930A9316
:10080A0008955D814C813B812A811981088108956F
:00000001FF
