:1000000012C0FECFFDCFFCCFFBCFFACFF9CFF8CF98
:10001000F7CFF6CFF5CFF4CFF3CFF2CFF1CFF0CFCC
:10002000EFCFEECFEDCFF894EE27ECBBE5BFF8E1D4
:10003000A4B7A77FA4BFF1BDE1BD8DE0A2E0ED9321
:100040008A95E9F780E8A0E6ED938A95E9F7E0E084
:10005000E3BBE4BBE5BBEFEDEDBFC0E800C0E0E80B
:10006000E6BDE0E0E6BDEBBBEABBEFEFE8BBE7BB1C
:10007000E0E0E2BBE1BBE0BFE3BFE2BFE6BFECBF55
:10008000EFBDEEBDEDBDECBDE5BDE4BDEBBDEABD34
:10009000E9BDE8BDEBBFE5BFE9BFEDB9E0E8E8B910
:1000A000E0E004D0EFEF02D0FBCFFFCFE8BBE8EEFB
:1000B000F3E0FA93EA9300C0E991F991309639F0B0
:1000C00088EE93E00197F1F7A8953197C9F7089565
:00000001FF
