:0A00000027C0FECFFDCFFCCFFBCFE1
:10000A00FACFF9CFF8CFF7CFF6CFF5CFF4CFF3CFBA
:10001A00F2CFF1CFF0CFEFCFEECFEDCF1027E8033D
:10002A0064000A00010000100001100001000A0D1E
:10003A00000001002D4E414E00494E4600000100CD
:10004A0060013C000000F894EE27ECBBF1E0FBBF36
:10005A00EBBFE5BFF8E1F1BDE1BD8DE0A2E0BB2752
:10006A00ED938A95E9F780E094E0A0E6ED93019795
:10007A00E9F7E8E4F0E085919591009761F0A591A0
:10008A00B59105901590BF01F00105900D92019769
:10009A00E1F7FB01F0CFEFE5EDBFE4E0EEBFC0E62C
:1000AA00D1E00CC0E881E7B98BE18A95F1F7369A7D
:1000BA00349BFECF349AE4B1F5B16FC0E0E0E8BBFF
:1000CA00E7BBE5BBE4BBE2BBE1BBE3BFE2BFEFBD1D
:1000DA00EEBDEDBDECBDE7BDE6BDEBBDEABDE9BDDC
:1000EA00E8BDE2BDE5BDE4BDE3BDE5BFE9BFEBB9EF
:1000FA00E8E0EAB9E6E8E0BDE1E0E0BDE3EFE9B94E
:10010A00E0E8E8B9E0E0E0BFE7B9E5E8E6B9E0E051
:10011A00EDB9E6BFE0E0EA93C5DF2F015A924A92B1
:10012A007A926A920AD07A926A9239D0E8E3F0E037
:10013A00FA93EA9341D0EECFFFCFA991B991E99111
:10014A00F99130962AF4E095F09531966DE26D9327
:10015A00E89480E197E20DD088EE93E00AD084E635
:10016A00992707D08AE005D06E2F10D066276C93A6
:10017A0008956627E817F90720F06395E81BF90B3D
:10018A00C9F7662311F416F008956894605D6D93BB
:10019A0008955D9BFECFE881ECB9219608951A93E4
:1001AA00A981BA81ED91A983BA831E2FE03019F093
:1001BA001A93EFDFF5CF0EC01A93E981FA813196CF
:1001CA00E983FA833197E4911E2FE03019F01A93EC
:1001DA00E0DFF3CFEAE0EA93DCDF188123960895A3
:00000001FF
