:0A00000017C0FECFFDCFFCCFFBCFF1
:10000A00FACFF9CFF8CFF7CFF6CFF5CFF4CFF3CFBA
:10001A00F2CFF1CFF0CFEFCFEECFEDCF000001005E
:10002A00050026000000F894EE27ECBBF1E0FBBFC8
:10003A00EBBFE5BFF8E1F1BDE1BD8DE0A2E0BB2772
:10004A00ED938A95E9F780E094E0A0E6ED930197B5
:10005A00E9F7E8E2F0E085919591009761F0A591C2
:10006A00B59105901590BF01F00105900D92019789
:10007A00E1F7FB01F0CFEFE5EDBFE4E0EEBFC0E64C
:10008A00D1E000C0E0E0E8BBE7E0E7BBE0E0E5BBC9
:10009A00E4BBE2BBE1BBE3BFE2BFE3EAEFBDE9E0F9
:1000AA00EEBDE0E0EDBDECBDE7BDE6BDEBBDEABDF2
:1000BA00E9BDE8BDE2BDE5BDE4BDE3BDE5BFE9BF1D
:1000CA00EAB9E0E8E8B9E0E0E0BFE6B9EDB9E6BFD1
:1000DA00E8EBF1E0FBBDEABDF9BDE8BDF9CFFFCF22
:00000001FF
