:0A0000000C9487000C94B7000C94D8
:10000A0000000C9400000C9400000C9400000C9466
:10001A0000000C9400000C9400000C9400000C9456
:10002A0000000C9400000C9400000C9400000C9446
:10003A0000000C9400000C9400000C9400000C9436
:10004A0000000C9400000C94000001580000566552
:10005A0078696C6C61726975732056312E30004D67
:10006A0061696E204D656E75203A00312E20466F0B
:10007A006C6C6F77204C696E6500322E20466F6C6F
:10008A006C6F77205061746800332E204368656373
:10009A006B205377696E6700436F6E7175657220C6
:1000AA0027656D20416C6C2100416C69676E204D9B
:1000BA0065210053746570204F6E65005374657036
:1000CA002054776F00537465702054687265650018
:1000DA005374657020466F75720046696E6973685D
:1000EA00210001002D4E414E00494E46000080C0BD
:1000FA0003000700540001006402EC0002006802D9
:10010A00F8000000F894EE27ECBBF1E0FBBFEBBF70
:10011A00E5BFF8E1F1BDE1BD8DE0A2E0BB27ED93BB
:10012A008A95E9F780E098E0A0E6ED930197E9F770
:10013A00EAEFF0E085919591009761F0A591B5916C
:10014A0005901590BF01F00105900D920197E1F716
:10015A00FB01F0CFEFE5EDBFE8E0EEBFC0E6D2E08D
:10016A000C94A2016A937A93AA93BA93EA93FA93A4
:10017A00EFB7EA93809B0DC0A0E6B2E00E949E040E
:10018A00EF5FFF4F6F4F7F4F0E94A304319760408C
:10019A00704080990DC0A0E6B2E00E949E0431979B
:1001AA00604070400E94A304EF5FFF4F6F4F7F4F84
:1001BA00E991EFBFF991E991B991A9917991699181
:1001CA0018950E9408030E94B30204C00E94080303
:1001DA000E94A602E0E0EA93E1E0EA930E94670245
:1001EA00E881F981FA93EA930E94B302249608956A
:1001FA00E881F9810E9414030E9477020C94750227
:10020A00A881B981E4E60E948504DF01E4EBF0E00D
:10021A000E948B04AAE0B0E00E947D04E851FC4FE2
:10022A00F9BDE8BD0C9475022497EC81FF27662777
:10023A0077270E94AE03DF01CB01E0E0F0E060E245
:10024A0071E40E942A04A0E0B0E08FE793E40E94E0
:10025A00DC030E94A8040E947503E3BD2596089555
:10026A00A881A13011F4959A9698E881E03011F4AA
:10027A009598969AA881A23011F4959A969A0C9418
:10028A000603AA24BB24EA81FB81AE16BF06D0F47A
:10029A00EE81FF81FA93EA93B3DFED81EA93C4DF3B
:1002AA00EC81EA93DDDF5A924A92EA81FB81FA9362
:1002BA00EA938CDFE1E0F0E00E941403F501319645
:1002CA005F01E1CF28960895B09902C0E1E07E2E41
:1002DA00B19902C0E2E07E2EB29902C0E3E07E2E1E
:1002EA001BC0E1E0E71531F40E941803E5E7F0E0EE
:1002FA000E941D03E2E0E71531F40E941803E4E8C6
:10030A00F0E00E941D03E3E0E71531F40E941803B0
:10031A00E3E9F0E00E941D03EAE0F0E00E94140322
:10032A0008959A928A92E2EAF0E00E941D03E4EFAD
:10033A00F1E0FA93EA935CDF0895E0E0EBBBEABBF5
:10034A00EFE0E8BBE0E0E7BBE5BBE4BBE2BBEFEF15
:10035A00E1BBE0E0E3BFE2BFECBFE2E2EFBDE2E116
:10036A00EEBDE0E0EDBDECBDE7E1E7BDE0E1E6BDF5
:10037A00E0E0EBBDEABDE9BDE8BDE2BDE7E6E5BD0B
:10038A00E0E0E4BDE3BDEBB7E064EBBFE2E0E5BF6C
:10039A00E0E0E4BFE0E4EABFE0E0E9BFE0E8E8B9B2
:1003AA00E0E0E0BFE0E1EA930E94D402F894B9DF0A
:1003BA008BDF97DFA0E0B399A1E0A03019F4E2E067
:1003CA00E71509F03EC0EAE5F0E0FA93EA93E0E0C7
:1003DA00EA93E2E00E942103E3EBF0E00E942703A4
:1003EA00EDE2F0E00E942B03EDEBF0E00E94270320
:1003FA00E4EBF0E00E942B03E6ECF0E00E94270316
:10040A00E0E0F0E00E942B03EFECF0E00E9427030B
:10041A00E7E8F0E00E942B03EAEDF0E00E942703F0
:10042A00EAE5F0E0FA93EA93E4E6EA93E2E0EA9393
:10043A00E8EEF3E0FA93EA93E4EEF0E00E94270391
:10044A00B9CFB6CFFFCFFFE0FA95F1F70895A4B37D
:10045A00AF70A4BBA99AA898F6DFAA9AF4DFA3B34F
:10046A00AA98F1DFAA9AEFDFAA98A7FDF5CF089517
:10047A00A07FAB2BA5BBAA9A0E942802AA980E9429
:10048A0028020895A998A4B3A76FA4BBB5B3BF70F7
:10049A00A881EEDFA881A295EBDFA99A0C94060346
:1004AA00AA9A0E942802E3B3AA980E942802E07F2F
:1004BA0008950E942802F4DFAE2FF2DFA998E29590
:1004CA00EA2B08950E942C02E881F0E0E859FD4FDA
:1004DA00E081A981EA0FEA930E9447026980D880E5
:1004EA00229608950E942C02E2E0EA930E944702B3
:1004FA000E942C02ECE0EA930E9447020E942C021E
:10050A00E1E0EA930E944702E0E0DE2E6E2E0895B3
:10051A00EF93FF93A8816894AA3019F0E8946C14B9
:10052A0030F0D394E0E0EA93DA92CCDF36F06394C9
:10053A008EDFA89AA881AA93A5DFFF91EF910C9468
:10054A0006031A93A981BA81ED91A983BA831E2F52
:10055A00E03019F01A93DCDFF5CF0EC01A93E98167
:10056A00FA813196E983FA833197E4911E2FE030BC
:10057A0019F01A93CDDFF3CF188123960895AA278D
:10058A00BB271197F1F70895A998A4B3A76FA4BB45
:10059A00B5B3BF70A8810E943D02A99A32C0AA9839
:1005AA00A898C880E881E058E0936A02E881E0549C
:1005BA00E0936B020E9431030E9431030E943103CF
:1005CA00DEDFE0E2EA93E0DFDADFE8E20E94370307
:1005DA00E4E00E943703E5E80E943703A4B3AF7052
:1005EA00A4BBA99A0E945E02E53011F0E0E009C0BE
:1005FA000E942C02E6E0EA930E9447020E947702D8
:10060A00E1E0219608950E947702E0E0EA93EA93F6
:10061A000E946702EA81FB81FA93EA930895FA93AA
:10062A00EA930C943C03E9E6F0E0FA93EA9308951E
:10063A00FA93EA930C94E600EA93E8ECF0E0FA9372
:10064A00EA930895FA93EA930C944601FA93EA938B
:10065A00E2E3EA93E1E0F0CF0E94C402E0E3EA9326
:10066A000C94C902EA930E9447020C94C402E991CD
:10067A00F991309639F080EA9FE00197F1F7A89551
:10068A003197C9F70895552342F4503811F4E0FF21
:10069A0004C03196691F791F6BF050E8572711F48F
:1006AA005F9373C05F3F31F0660F000C57956795F3
:1006BA00752F08955F9300200AF073C06CC050E84C
:1006CA00192E1522880F991F9527550F879550E8DF
:1006DA00072E0522660F771F7527550F6795089510
:1006EA00689401C0E8945F93F2DF703818F07F3F96
:1006FA0008F44BC056E1571BAAF4519558300EF432
:10070A00593030F0EFEFFFEF6FEF7FE777F91AC05C
:10071A0077275523B9F0EE0FFF1F661F771F5A95EB
:10072A00D1F710C07727583028F0EF2FF62F672F10
:10073A005850F9CF552331F076956795F795E79597
:10074A005A95D1F700200AF4C5D05F9108956894AC
:10075A0001C0E894309760407040B1F0002426F060
:10076A00772312F40094B6D0172E7EE1112032F0CE
:10077A007A95EE0FFF1F661F111CF9CFEF2FF62F88
:10078A00612D5F938ADF5F910895EE27FF27662721
:10079A0077275F910895EFEFFFEF6FE77FEF5F91A4
:1007AA000895EFEFFFEF6FE77FE75F9108955F939B
:1007BA0086DF703851F3903841F301240894791F89
:1007CA0023F41CF300203AF3ECCF0F921F932F93DC
:1007DA003F934F93112722279927689FA0018F9F44
:1007EA00302D410D591F6B9F300D411D591F8E9F92
:1007FA0027D0BF9F25D06A9F23D0BE9F1DD0AF9F11
:10080A001BD0AE9F110D291F391F491F591FE32FF6
:10081A00F42F652F522F4F913F912F911F910F90D7
:10082A0066232AF0550FEE1FFF1F661F02C073953D
:10083A004BF229DF5F910895100D211D391F02C067
:10084A00200D311D491F591F08955F9338DF7038F5
:10085A0021F411200AF49FCFA4CF903809F495CF40
:10086A0001240894970B1BF4D4F30020F3CF792FBB
:10087A001F932F933F934F93112411272227332736
:10088A004427552790E2AE17BF078607410730F085
:10089A00AE1BBF0B860B410B089401C08894551FF1
:1008AA00221F331F111CAA1FBB1F881F441F9A95A2
:1008BA0051F7F901612D4F913F912F911F916623B5
:1008CA0032F0550FEE1FFF1F661F7A9543F2DBDEEB
:1008DA005F910895F09560957095E195FF4F6F4F80
:1008EA007F4F0895FE2FFF0FFF0B6F2F7F2F089565
:1008FA00FA9FF02DEB9FF00DEA9FE02DF10D089580
:10090A006E2F6A9FF0016B9FF00D08950024112449
:10091A0090E1AA0FBB1F001C111C0E1A1F0A18F423
:10092A000E0E1F1E01C0A1609A9599F7FD01D00114
:10093A000895ED91FD916D917D9108957E936E9349
:10094A00FE93EE930895E883F9836A837B8308957F
:00000001FF
