:0800000021C0FECFFDCFFCCFB3
:10000800FBCFFACFF9CFF8CFF7CFF6CFF5CFF4CFB4
:10001800F3CFF2CFF1CFF0CFEFCFEECFEDCF102768
:10002800E80364000A00010000100001100001004C
:100038004A414E25303364434F4B0000F894EE2775
:10004800ECBBE5BFF8E1A4B7A77FA4BFF1BDE1BD54
:100058008DE0A2E0ED938A95E9F780E8A0E6ED93BC
:100068008A95E9F7E0E0E3BBE4BBE5BBEFEDEDBF64
:10007800C0E800C0E0E8E6BDE0E0E6BDEBBBEABBF7
:10008800E8BBE7BBE2BBE1BBE0BFE3BFE2BFE6BF63
:10009800ECBFEFBDEEBDEDBDECBDE5BDE4BDEBBD18
:1000A800EABDE9BDE8BDEBBFE5BFE9BFEDB9EBB916
:1000B800E8E0EAB9E6E0E3B9E1E0E2B9E0EAE9B9A3
:1000C800E0E8E8B9E0E0E1B9C19BFECFFDCFFFCFA2
:00000001FF
