:080000000C9442000C94000076
:100008000C9400000C9400000C9400000C94000068
:100018000C9400000C9400000C9400000C94000058
:100028000C9400000C9400000C9400000C94000048
:100038000C9400000C9400000C9400000C94000038
:100048000C9400000C9400000C9400000C94000028
:100058000C9400000C9400000C9400000C94000018
:1000680001002D4E414E00494E46000080C001005F
:10007800040268000200080274000000F894EE27E9
:10008800EFBBF1E0F5BFE5BFF8E1A895A4B7A77FFE
:10009800A4BFF0936000E09360008DE0A2E0BB276E
:1000A800ED938A95E9F780E094E0A0E0B1E0ED9364
:1000B8000197E9F7E6E7F0E085919591009761F0FF
:1000C800A591B59105901590BF01F00105900D928D
:1000D8000197E1F7FB01F0CFE0E0EEBBEFEFEDBFFA
:1000E800E4E0EEBFC0E0D2E00C947A00E0E8E093F0
:1000F8006100E0E0E0936100E5B9E4B9E8B9E7B987
:10010800EBB9EAB9E4BDE5BDE6BDE7BDE8BDE093FE
:100118008000E0938100E0938500E0938400E09301
:100128008700E0938600E0938900E0938800E093DD
:100138008B00E0938A00E093B600E093B000E09370
:10014800B100E093B200E093B300E093B400E09311
:100158006900EDBBE0936800E0936E00E0936F00E8
:10016800E0937000E093C100E0E8E0BFE0E0E093D6
:100178007B00E0937F00E0937A00ECBDE093BC0045
:100188000E946602E0E0EA93EA93EA930E94430140
:10019800E0E1EA930E9419020E94D501E1E0F0E053
:1001A800FA93EA930E94B802E4E0F0E0FA93EA9343
:1001B800E3E0F0E0FA93EA93E6E0F0E0FA93EA93FA
:1001C8000E946301E4E6F0E07E2E8F2EE6E9F0E07F
:1001D8009E2EAF2EE8ECF0E0BE2ECF2E8A927A92B9
:1001E800EA92DA920E941701AA929A92E09100028A
:1001F800F0910102FA93EA930E941701CA92BA9207
:10020800E0910202F0910302FA93EA930E94170127
:10021800E0E0EA93EA930E94C601EA92DA920E9429
:100228000A02BACFFFCFA991B991E991F991309615
:100238002AF4E095F09531966DE26D93E89480E1AB
:1002480097E20DD088EE93E00AD084E6992707D08C
:100258008AE005D06E2F10D066276C930895662724
:10026800E817F90720F06395E81BF90BC9F766232F
:1002780011F416F008956894605D6D930895EA810D
:10028800E370EA83E981E03019F0EA81E061EA830A
:10029800E881E03019F0EA81E068EA830E946B02A5
:1002A800E0EDEA930E949F02E7E0EA930E949F0232
:1002B800EA81EA930E949F020E947A02B4C00E94D7
:1002C8006B02E0EDEA930E949F02E0E0EA930E944D
:1002D8009F020E946B02E1EDEA930E949F02E1E017
:1002E800EA930E948402EA930E945A02A881B98183
:1002F800EC93E1E0EA930E948402EA930E945A0296
:10030800AA81BB81EC93E0E0EA930E948402EA931D
:100318000E945A02AC81BD81EC930E947A02269613
:100328000895E881E07111F02C9A01C02C98E881B9
:10033800E07211F02D9A01C02D98E881E07411F057
:100348002E9A01C02E98E881E07811F02F9A01C00A
:100358002F9881E08A95F1F72A9A83E08A95F1F738
:100368002A9883E08A95F1F79FC0E881EA93D9DF5C
:10037800E881E295E883E881EA93D3DF81E28A9510
:10038800F1F792C0E881F0E0E85FFD4FE081A981D4
:10039800EA0FEA93EADF5980E881E0930C0222969B
:1003A8000895E2E0EA93E1DFE3E0F0E0FA93EA930C
:1003B8000E94B802ECE0EA93D8DFE1E0EA93D5DFE7
:1003C800E3E0F0E0FA93EA930E94B802E0E0E093F9
:1003D8000C025E2E0895A881AA3021F0E0910D024A
:1003E8005E1668F0E0E0EA93E0910C02EF5FE093BC
:1003F8000C02EA93C7DFA881AA3009F455C05394C8
:10040800289AE881EA93B1DF28984EC01A93A98107
:10041800BA81ED91A983BA831E2FE03019F01A939F
:10042800DADFF5CF188123960895249A259A269A1B
:10043800279A229A209A219A2A9828982998E88116
:10044800E0930D02E058E0930A02E881E054E0935B
:100458000B02E4E1F0E0FA93EA930E94B802E0E3C9
:10046800EA935FDF83E48A95F1F7E0E3EA9359DFE3
:1004780083E48A95F1F7E0E3EA9353DF83E48A950E
:10048800F1F7E0E2EA934DDF83E48A95F1F7E8E2D9
:10049800EA936BDFE4E0EA9368DFE5E8EA9365DF77
:1004A800E6E0EA9362DF7DDF21960895E881E29530
:1004B800EF70AE2FAA0FAA0FEA0FEE0FA991AF7037
:1004C800EA0F089541984098399A389815C0389895
:1004D8003998EE270000309B0895319B089504D089
:1004E800389A02D0399AE1E063E007C0389A399A1D
:1004F80003D03998F9DF389867E06A95F1F70895DD
:1005080078E03998F1DF319BFECFEEDF889430999F
:100518000894399AF1DFEE1F7A9599F77991772344
:1005280011F4389801C0389ADFDF3998E5DF399A35
:10053800DBDF3898D9CFE99178E0EE0F10F43898DE
:1005480001C0389AD9DF3998CFDF319BFECFCCDF95
:10055800399A7A9591F73898C7DF3998CDDFE1E075
:100568003099EE27399AC0CFE991F991309639F050
:1005780084EF91E00197F1F7A8953197C9F70895AD
:00000001FF
