:0A00000012C0FECFFDCFFCCFFBCFF6
:10000A00FACFF9CFF8CFF7CFF6CFF5CFF4CFF3CFBA
:10001A00F2CFF1CFF0CFEFCFEECFEDCFF894EE27BE
:10002A00ECBBF1E0FBBFEBBFE5BFF8E1F1BDE1BD21
:10003A008DE0A2E0BB27ED938A95E9F780E094E092
:10004A00A0E6ED930197E9F7EFE5EDBFE4E0EEBF37
:10005A00C0E6D1E00DC0E881E7B985E38A95F1F7FA
:10006A00369A349BFECF349AE4B1F5B121960895BD
:10007A00E0E3E8BBEFECE7BBE0E0E5BBE4BBE2BBF7
:10008A00E1BBE3BFE2BFE3EAEFBDE5E0EEBDE0E0DE
:10009A00EDBDECBDE7BDE6BDEBBDEABDE9BDE8BD22
:1000AA00E2BDE5BDE4BDE3BDE5BFE9BFEAB9E0E80D
:1000BA00E8B9E0E0E0BFE7B9E4E8E6B9E0E0EDB9C5
:1000CA00E6BFE0E0EA93C7DF2F015BBC4ABC59BC3C
:1000DA0048BC4614570468F4C09AC39AD301A419B9
:1000EA00B509E3E0F0E014D0FA93EA9305D0C0989A
:1000FA00C3983201E6CFFFCFE991F991309639F0F2
:10010A0080EA9FE00197F1F7A8953197C9F708951A
:10011A00FA9FF02DEB9FF00DEA9FE02DF10D089567
:00000001FF
