:040000000C94360026
:100004000C9400000C9400000C9400000C9400006C
:100014000C9400000C9400000C9400000C9400005C
:100024000C9400000C9400000C9400000C9400004C
:100034000C9400000C9400000C9400000C9400003C
:100044000C9400000C9400000C9400000C9400002C
:1000540043656B204C43442043756B21000080C0F2
:100064000200600262000000F894EE27ECBBF1E0AD
:10007400F5BFE5BFF8E1F1BDE1BD8DE0A2E0BB272E
:10008400ED938A95E9F780E098E0A0E6ED93019777
:10009400E9F7E4E6F0E085919591009761F0A59188
:1000A400B59105901590BF01F00105900D9201974F
:1000B400E1F7FB01F0CFEFE5EDBFE8E0EEBFC0E60E
:1000C400D2E00C946500E0E0EBBBEABBE8BBE7BB25
:1000D400E5BBE4BBE2BBE1BBE3BFE2BFECBFEFBD0A
:1000E400EEBDEDBDECBDE7BDE6BDEBBDEABDE9BDD2
:1000F400E8BDE2BDE5BDE4BDE3BDE5BFE4BFE9BFE6
:10010400EAB9E0E8E8B9E0E0E0BFE6B9EDB9E6BF96
:10011400A0E16BD0A4E5B0E055D0A4E68ED02FD0FA
:10012400F9CFFFCFAA93E8B3EF70AE2FE881E07F59
:10013400EA2BE8BB83E08A95F1F7C29A87E08A95B7
:10014400F1F7C29887E08A95F1F775C0AA93A88160
:10015400E9DFE881E295E883A881E4DF83E48A9516
:10016400F1F769C0AA93E881F0E0E05AFD4FE0811D
:10017400A981AE0FEBDF5980488022960895A2E052
:10018400E5DFA3E05AD0ACE0E1DFA1E0DFDFA3E0EC
:1001940054D0E0E04E2E5E2E0895AA93A881AA3092
:1001A40011F0571448F0E0E0EA934394A42DDADF09
:1001B400A881AA3009F43FC05394C09AA881C6DF2D
:1001C400C09839C0BA93AA931A93E981FA813196F7
:1001D400E983FA833197E4911E2FE03019F0A12FBF
:1001E400DCDFF3CF188123960895AA93E7B3E06F79
:1001F400E7BBBA9AB89AB99AC298C098C19878805D
:10020400E881E058E0936202E881E054E0936302FD
:10021400A4E113D015D014D013D0A0E283DF85E875
:100224008A95F1F7A8E292DFA4E090DFA5E88EDFDB
:10023400A6E08CDFA4DF21960895B0E00C94280199
:10024400A0E370DF85E88A95F1F70895109639F0F8
:1002540088EE93E00197F1F7A8951197C9F70895EF
:00000001FF
