:0200000020C01E
:10000200FECFFDCFFCCFFBCFFACFF9CFF8CFF7CFA2
:10001200F6CFF5CFF4CFF3CFF2CFF1CFF0CFEFCFD2
:10002200EECFEDCF1027E80364000A0001000010B4
:100032000001100001004655434B20594F55210045
:10004200F894EE27ECBBE5BFF8E1A4B7A77FA4BF05
:10005200F1BDE1BD8DE0A2E0ED938A95E9F780E87C
:10006200A0E6ED938A95E9F7E0E0E3BBE4BBE5BBEC
:10007200EFEDEDBFC0E800C0E0E8E6BDE0E0E6BDC0
:10008200EBBBEABBE1E0E8BBE0E0E7BBE2BBE1E0FF
:10009200E1BBE0E0E0BFE3BFE2BFE6BFECBFEFBD24
:1000A200EEBDEDBDECBDE5BDE4BDEBBDEABDE9BD18
:1000B200E8BDEBBFE5BFE9BFEDB9EBB9E8E0EAB9EE
:1000C200E6E0E3B9E0E0E2B9E7E6E9B9E0E8E8B999
:1000D200E0E0E1B9ABE20FD0AAE0B0E082D1E8E320
:1000E200F0E0FA93EA9380E02CD12296A8EEB3E0F6
:1000F20078D1F0CFFFCFAA935D9BFECFE881ECB918
:1001020021960895AA93A981F6DFA881ED91FD9128
:100112003196FE93EE9322960895AA93269782D162
:1001220010E0AC85E0E0F0E0ED93FC93E889F9891A
:100132003196E88BF98B3197E4912E2FE03009F458
:10014200FBC0E12FE03031F4253211F411E001C09F
:100152002CD1F1C0E130A1F4253211F426D1EAC04C
:1001620012E040E000E02D3211F401E0E4C02B3255
:1001720011F44BE2E0C0203211F440E2DCC002C0D4
:10018200E23039F450E013E0203311F40068D3C0B8
:1001920003C0E33009F0CFC0203310F02A3308F057
:1001A20008C0E52FAAE02BD15E2FE22FE0535E0FAD
:1001B200C2C0E22FE33629F4FED0A481AA93FFD075
:1001C200B9C0E33739F4F7D0E481EE83AE81D6D0FB
:1001D2001E2F09C0E03759F4F7D0FDD0AE81BF81A0
:1001E200D7D01E2F086002600F7730E02CC0E436B3
:1001F20011F0E93611F4046002C0E53729F4E6E2B1
:10020200F0E0E9D015E00BC0E83511F4086003C056
:10021200E83709F08FC0E0E3F0E0DDD014E002FF40
:1002220010C0D2D0DBD0AB85AA232AF4EA85FB85A5
:10023200E2D0D4D04DE2403011F01F5F01C00B7FFD
:1002420002C0C2D0CBD000FD10C0151770F407FF5A
:1002520008C002FF04C00B7F242F115001C020E30D
:1002620001C020E2A2D05150F0CF312F01FF13C0C4
:10027200303081F003FF05C0EE81FF812591ABD0C4
:1002820003C0AE812D91AE8390D0503009F0515011
:100292003150EECF46C020E3EE81FF81BFD0E88728
:1002A200F987EE81FF81329696D0E885F985AA8595
:1002B200BB85AE17BF0748F02F5FA885B985EA85D1
:1002C200FB85EA1BFB0B8AD0F0CF2A3328F003FF11
:1002D20002C0295F01C0295D04FD19C0213320F449
:1002E200A885B985119709F409C0531710F000FFCA
:1002F20001C011C020E207FF0AC020E3006102FF33
:1003020006C00B7F4A935BD0503009F051504DD05C
:10031200503009F051503150A885B985129708F034
:10032200BACF00FF07C0503029F05150E0E2EA9303
:1003320046D0F9CF10E0FACEAC856CD07AD0629676
:100342000895FF92F82E24971A93AC2FAF5FAF0D4A
:100352001A2FE0E0EB83EC83AC2FAB5FAF0D5AD0EA
:10036200FA93EA931A93E3E8F0E0FA93EA93AC2F54
:10037200AA5FD3DE18812596FF900895AA93BB2722
:10038200A991EE276D91662311F0E395FBCF0895B5
:10039200BA93AA93AA27BB27E991F9910590002065
:1003A20011F01196FBCFFD0108952A93AD85EE85DC
:1003B200FF8509950895EF85E450EF870895AD858F
:1003C200EE85FF8509950895EF85E450EF87AF85A7
:1003D200AC5F20D00895EE83FF830895EA87FB8700
:1003E2000895109639F080EA9FE00197F1F7A895F9
:1003F2001197C9F70895F195E195F04008950A2EF5
:10040200AA1BB9E003C008F4A00DA695E795BA951A
:10041200D1F70895ED91FC91AA9508950590F49174
:10042200E02D08955A934A933A932A931A930A9382
:1004320008955D814C813B812A811981088108954B
:00000001FF
