:040000002AC0FECF45
:10000400FDCFFCCFFBCFFACFF9CFF8CFF7CFF6CFA8
:10001400F5CFF4CFF3CFF2CFF1CFF0CFEFCFEECFD8
:10002400EDCF1027E80364000A000100001000016E
:100034001000010047616B206E6761727568206370
:10004400756B21002563000080C0020080004C0015
:100054000000F894EE27ECBBE5BFF8E1A4B7A77F56
:10006400A4BFF1BDE1BD8DE0A2E0ED938A95E9F76F
:1000740080E8A0E6ED938A95E9F7EEE4F0E0859157
:100084009591009761F0A591B59105901590BF01E8
:10009400F00105900D920197E1F7FB01F0CFE0E04C
:1000A400E3BBE4BBE5BBEFEDEDBFC0E800C0E0E8B7
:1000B400E6BDE0E0E6BDEBBBEABBE8BBEFEFE7BBC8
:1000C400E0E0E2BBE1BBE0BFE3BFE2BFE6BFECBF01
:1000D400EFBDEEBDEDBDECBDE5BDE4BDEBBDEABDE0
:1000E400E9BDE8BDEBBFE5BFE9BFEDB9EBB9E8E0B9
:1000F400EAB9E6E0E3B9E0E0E2B9E7E6E9B9E0E865
:10010400E8B9E0E0E1B9A0E1A2D05DD0A8E3B0E0B5
:100114008DD0E8E4F0E0FA93EA93E2E0F0E060E006
:1001240070E0A3D284E039D22696EBE2E21561F4C2
:100134003A92A0E1C9D0E0E0EA93A0E03AD0A32D3E
:1001440067D0A4E1B0E068D2EDE2E21561F43A923E
:10015400A0E1BAD0E0E0EA93A1E02BD0A32D58D0DF
:10016400A4E1B0E059D2A8ECB0E056D2CECFFFCF94
:10017400AA93E8B3EF70AE2FE881E07FEA2BE8BBE7
:100184008BE08A95F1F7C29A8BE18A95F1F7C298D0
:100194008BE18A95F1F792C0AA93A881E9DFE881FF
:1001A400E295E883A881E4DF88EC90E00197F1F719
:1001B40085C0AA93E881E058E081A981AE0FECDF05
:1001C4005980488031C0A2E0E7DFA3E0B0E024D248
:1001D400ACE0E2DFA1E0E0DFA3E0B0E01DD2E0E0CC
:1001E4004E2E5E2E0895AA93A881AA3011F05714BA
:1001F40048F0E0E0EA934394A42DDBDFA881AA3021
:1002040009F45CC05394C09AA881C6DFC09856C054
:10021400AA931A93A981ED91A9831E2FE03019F0B6
:10022400A12FE1DFF7CF188122960895BA93AA93FC
:100234001A93E981FA813196E983FA833197E4913B
:100244001E2FE03019F0A12FCEDFF3CF6DC0AA939B
:10025400E7B3E06FE7BBBA9AB89AB99AC298C09864
:10026400C1987880E881E058E0938200E881E05406
:10027400E0938300A4E1B0E0CFD1A0E379DF80E98B
:1002840091E00197F1F7A0E373DF80E991E0019732
:10029400F1F7A0E36DDF80E991E00197F1F7A0E2C7
:1002A40067DF80E991E00197F1F7A8E275DFA4E048
:1002B40073DFA5E871DFA6E06FDF85DF219608957F
:1002C4005F9BFECFECB10895AA93D6D11C810D811A
:1002D400103099F0F5DF3E2F383031F4AC811A1725
:1002E40010F401501F5FF6CF3A3039F00F930F5FCF
:1002F400E32FAF91EC931150EBCFA02FE0E0EC9300
:10030400ED81C1D126960895AA931A93A981E0E0BC
:10031400EC93AA81EC911E2FE03019F0E0E0EC930D
:1003240002C0CEDF1E2FE12F188123960895AA93D1
:100334002497A0D1E0E0F0E0E887F9875E2FEE850E
:10034400FF853196EE87FF873197E4910E2FE030D9
:1003540009F41EC1A02F46D1E030D1F0EDB7EA93E5
:100364005F93AB85EC85FD8509955F910E2FE03099
:1003740021F0A02F37D1E03009F408C0AA85AC9150
:10038400A0301CF4EFEFFFEF05C1E8CF502FFFC002
:10039400053209F0E3C020E0EE85FF850591EE8784
:1003A400FF87003310F00A3308F008C0E22FAAE0F8
:1003B4003DD12E2FE02FE0532E0FEECF003009F465
:1003C400E7C0EDB7EA935F93AB85EC85FD850995AE
:1003D4005F913E2FAE2F06D1E03041F0AA85AC915B
:1003E400A0301CF4EFEFFFEFD5C0EBCF303009F4B1
:1003F400C6C0532F203009F42FEFE02FE336B1F4B9
:10040400ED85E450ED871481EDB7EA935F93AB85F6
:10041400EC85FD8509955F91A12FEC93AA85AC919C
:10042400A0301CF4EFEFFFEFB5C092C0E33749F5FD
:10043400ED85E450ED871481E22F2150E030E9F09E
:10044400EDB7EA935F93AB85EC85FD8509955F91E4
:100454000E2FE03021F0A02FC5D0E03041F0AA8566
:10046400AC91A0301CF4EFEFFFEF94C006C01F93D3
:100474001F5FE02FAF91EC93DFCFA12FE0E0EC936F
:1004840067C041E0E02FE43611F0E93611F440E0B2
:1004940002C0E53711F43AE008C0E83711F430E15E
:1004A40004C0E53209F45AC073C0E0E0EE83EF8380
:1004B400E22F2150E03009F43DC0EDB7EA935F9399
:1004C400AB85EC85FD8509955F910E2FE13240F4F3
:1004D400AA85AC91A0301CF4EFEFFFEF5BC012C013
:1004E400403029F40D3211F44FEFE2CF41E03031C6
:1004F40029F4A02F82D0E03029F006C0A02F69D0C3
:10050400E03011F4502F16C0013610F0075505C025
:10051400013410F0075301C00053E32FAE81BF81B3
:10052400F0E08FD0DF01E02FF0E0EA0FFB1FEE8355
:10053400FF83BECFED85E450ED871481E42FAE81B7
:10054400BF81F0E0E7FDFFEF7CD0A12FED93FC939A
:10055400E885F9853196E887F98719C0EDB7EA93FC
:100564005F93AB85EC85FD8509955F91E01779F084
:10057400AA85AC91A0301CF4EFEFFFEF0BC0E88527
:10058400F985309719F4EFEFFFEF04C001C0D7CE1F
:10059400E885F98576D060960895FF92F82E229723
:1005A4001A93AC2FA150AF0D1A2FE0E0EA83AC2FC1
:1005B400AD5FAF0D56D0FA93EA931A93E6E8F1E0F3
:1005C400FA93EA93AC2FAA5FB2DE18812396FF90C8
:1005D4000895AA93E1E0F991F03310F0FA3308F0AA
:1005E400EE270895AA93E1E0F991F03229F0F93069
:1005F40010F0FE3008F0EE270895AA93E1E0F99197
:10060400F05340F0FA3038F0FF75F750FA3010F03C
:10061400F03108F0EE270895109639F080EA9FE053
:100624000197F1F7A8951197C9F708950A2EAA1B07
:10063400B9E003C008F4A00DA695E795BA95D1F7E3
:1006440008950A2E1B2E81E1AA27BB1B05C010F4B6
:10065400A00DB11DB695A795F795E7958A95B9F7BD
:100664000895ED91FC91AA9508957A936A93FA936B
:10067400EA9308955A934A933A932A931A930A93BE
:1006840008955D814C813B812A81198108810895F7
:00000001FF
