:0E00000017C044C0FDCFFCCFFBCFFACFF9CF25
:10000E00F8CFF7CFF6CFF5CFF4CFF3CFF2CFF1CFC6
:10001E00F0CFEFCFEECFEDCF0000010003002600B2
:10002E000000F894EE27ECBBE5BFF8E1A4B7A77F7C
:10003E00A4BFF1BDE1BD8DE0A2E0ED938A95E9F795
:10004E0080E8A0E6ED938A95E9F7E8E2F0E0859185
:10005E009591009761F0A591B59105901590BF010E
:10006E00F00105900D920197E1F7FB01F0CFE0E072
:10007E00E3BBE4BBE5BBEFEDEDBFC0E811C0EA9317
:10008E00EFB7EA93E1E0E31539F4C09B02C0C098E4
:10009E0001C0C09A3324F894E991EFBFE991189505
:1000AE00E0E8E6BDE0E0E6BDEBBBEABBE8BBE1E0C5
:1000BE00E7BBE0E0E2BBE1BBE0BFE3BFE2BFE6BF10
:1000CE00ECBFEFBDEEBDEDBDECBDE5BDE4BDEBBDE2
:1000DE00EABDE9BDE8BDE0E4EBBFE2E0E5BFE0E488
:1000EE00EABFE0E0E9BFEDB9EAB9E0E8E8B9E0E07F
:1000FE00E1B9F894B29909C00AD0B29906C007D0F6
:10010E00B29903C0E1E03E2E7894F4CFFFCFE2E344
:10011E00F0E0FA93EA9300C0E991F991309639F044
:10012E0080EA9FE00197F1F7A8953197C9F70895F6
:00000001FF
