:0A0000001BC0FECFFDCFFCCFFBCFED
:10000A00FACF43C0F8CFF7CFF6CFF5CFF4CFF3CF7F
:10001A00F2CFF1CFF0CFEFCFEECFEDCF010080C01E
:10002A000100030026000200A20028000000F89444
:10003A00EE27ECBBE5BFF8E1A4B7A77FA4BFF1BDEB
:10004A00E1BD8DE0A2E0ED938A95E9F780E8A0E6AC
:10005A00ED938A95E9F7EAE2F0E0859195910097A8
:10006A0061F0A591B59105901590BF01F001059039
:10007A000D920197E1F7FB01F0CFE0E0E3BBE4BBAF
:10008A00E5BBEFEDEDBFC0E82EC00A921A92FA92D4
:10009A006A937A938A939A93AA93BA93EA93FA936E
:1000AA00EFB7EA93332039F4E0E8EA93A1E908D1FB
:1000BA007BD0E1E03E2EE1E0E31539F4E0E0EA939B
:1000CA00A0E068D0A0E895D03324E991EFBFF99178
:1000DA00E991B991A9919991899179916991F99047
:1000EA00199009901895E0E8E6BDE0E0E6BDEBBBA3
:1000FA00EABBE8BBE7BBE2BBE1BBE0BFE5E0E3BFCD
:10010A00E0E0E2BFE6BFECBFEFBDEEBDEDBDECBD8A
:10011A00E5BDE4BDEBBDEABDE9BDE8BDEBBFE5BFAA
:10012A00E2E0E9BFE0E0EDB9EBB9E0E1EAB9E6E027
:10013A00E3B9E0E0E2B9EFEBE9B9E0E8E8B9E0E019
:10014A00E1B9A0E164D07894E1E9EA93A8E098D013
:10015A00FBCFFFCFAA93E8B3EF70AE2FE881E07F21
:10016A00EA2BE8BB85E08A95F1F7C29A8CE08A957A
:10017A00F1F7C2988CE08A95F1F77CC0AA93A8811E
:10018A00E9DFE881E295E883A881E4DF8BE78A95D5
:10019A00F1F770C0AA93E881EE55E081A981AE0F0C
:1001AA00EDDF2980588031C0A2E0E8DFA3E0B0E0AB
:1001BA0093D0ACE0E3DFA1E0E1DFA3E0B0E08CD0D4
:1001CA00E0E05E2E2E2E0895AA93A881AA3011F09F
:1001DA00241448F0E0E0EA935394A52DDBDFA881CC
:1001EA00AA3009F447C02394C09AA881C7DFC098EF
:1001FA0041C0AA931A93A981ED91A9831E2FE030D9
:10020A0019F0A12FE1DFF7CF188122960895AA935A
:10021A00E7B3E06FE7BBBA9AB89AB99AC298C0989E
:10022A00C1984880E881E058E093A400E881E0544E
:10023A00E093A500A4E1B0E04FD0A0E38BDF86EF06
:10024A008A95F1F7A0E386DF86EF8A95F1F7A0E3B6
:10025A0081DF86EF8A95F1F7A0E27CDF86EF8A9547
:10026A00F1F7A8E28BDFA4E089DFA5E887DFA6E043
:10027A0085DF9ADF219608955F9BFECFECB1089542
:10028A00AA9334D01C810D81103099F0F5DF3E2FEE
:10029A00383031F4AC811A1710F401501F5FF6CFD1
:1002AA003A3039F00F930F5FE32FAF91EC9311506F
:1002BA00EBCFA02FE0E0EC93ED811DD026960895B8
:1002CA00AA93E991FF27A991BB278A2F61916D9380
:1002DA006623E1F7E82F0895109639F083E397E053
:1002EA000197F1F7A8951197C9F708953A932A93B8
:1002FA001A930A9308953B812A81198108810895E6
:00000001FF
