:0E00000020C0FECFFDCFFCCFFBCFFACFF9CF53
:10000E00F8CFF7CFF6CFF5CFF4CFF3CFF2CFF1CFC6
:10001E00F0CFEFCFEECFEDCF1027E80364000A004C
:10002E000100001000011000010042616E67736153
:10003E00740A0D00F894EE27ECBBE5BFF8E1A4B707
:10004E00A77FA4BFF1BDE1BD8DE0A2E0ED938A953F
:10005E00E9F780E8A0E6ED938A95E9F7E0E0E3BBE7
:10006E00E4BBE5BBEFEDEDBFC0E800C0E0E8E6BDE8
:10007E00E0E0E6BDEBBBEABBE8BBE7BBE2BBE1BB46
:10008E00E0BFE3BFE2BFE6BFECBFEFBDEEBDEDBD2F
:10009E00ECBDE5BDE4BDEBBDEABDE9BDE8BDEBBF22
:1000AE00E5BFE9BFEDB9EBB9E8E0EAB9E6E0E3B9DF
:1000BE00E0E0E2B9EFE2E9B9E0E8E8B9E0E0E1B9A1
:1000CE00E8E3F0E0FA93EA9380E0D1D022968DEC4B
:1000DE0091E00197F1F7F4CFFFCFAA935D9BFECF8E
:1000EE00E881ECB921960895AA93A981F6DFA8813B
:1000FE00ED91FD913196FE93EE9322960895AA937B
:10010E002497F8D010E0AA85E0E0F0E0ED93FC93A0
:10011E00EE85FF853196EE87FF87C6D009F4A2C023
:10012E00E12FE03031F4353211F411E001C0C1D0CD
:10013E0098C0E13081F4353211F4BBD091C012E099
:10014E0020E000E03B3211F42BE28BC0303211F490
:10015E0020E287C002C0E23031F4303319F400617E
:10016E0015E07FC003C0E53009F07BC0E32FE33616
:10017E0029F4A5D0A481AA93A6D072C0E33761F466
:10018E009ED0E481EE83AE81ED91AE833E2FE030C2
:10019E0011F08FD0F8CF64C0E03771F499D0A2D0AF
:1001AE00EE83FF83EE81FF813196EE83FF837CD059
:1001BE0011F07FD0F7CF54C0E43611F0E93611F4C8
:1001CE00016002C0E53719F4E6E2F0E009C0E83557
:1001DE0011F4026003C0E83709F042C0E0E3F0E03A
:1001EE00EE83FF8300FF0EC073D04D915C915523BB
:1001FE0022F4FA0173D0AF012DE2203011F02A93D0
:10020E0062D003C065D04D915C9130E3EE81FF81E9
:10021E006DD0E887F987EE81FF813296EE83FF83FA
:10022E00E885F9854E175F0730F03F5FA885B985E1
:10023E004A1B5B0BF5CF04FD06C0313320F4A885B5
:10024E00B985119749F400613A3328F001FF02C0D5
:10025E00395F01C0395D2DD0A885B9851297A8F6F2
:10026E0010E056CFAA853ED04CD060960895FF92EE
:10027E00F82E24971A93AC2FAF5FAF0D1A2FE0E034
:10028E00EB83EC83AC2FAB5FAF0D2CD0FA93EA93DC
:10029E001A93EBE7F0E0FA93EA93AC2FAA5F2FDF05
:1002AE0018812596FF9008953197E4913E2FE03006
:1002BE0008953A93AB85EC85FD8509950895ED85F6
:1002CE00E450ED870895AB85EC85FD85099508957D
:1002DE00ED85E450ED87AD85AC5F0895F195E19520
:1002EE00F0400895ED91FC91AA9508950590F49132
:1002FE00E02D08955A934A933A932A931A930A93A8
:10030E0008955D814C813B812A8119810881089570
:00000001FF
