:0400000020C0FECF4F
:10000400FDCFFCCFFBCFFACFF9CFF8CFF7CFF6CFA8
:10001400F5CFF4CFF3CFF2CFF1CFF0CFEFCFEECFD8
:10002400EDCF1027E80364000A000100001000016E
:100034001000010010000100040038000000F894D2
:10004400EE27ECBBE5BFF8E1A4B7A77FA4BFF1BDE1
:10005400E1BD8DE0A2E0ED938A95E9F780E8A0E6A2
:10006400ED938A95E9F7EAE3F0E08591959100979D
:1000740061F0A591B59105901590BF01F00105902F
:100084000D920197E1F7FB01F0CFE0E0E3BBE4BBA5
:10009400E5BBEFEDEDBFC0E818C05D9BFECF089552
:1000A4002224241438F4A52DA30DECB1EC93F5DF30
:1000B4002394F7CF2224241438F4E52DE30DE081B2
:1000C400ECB9EBDF2394F7CF0895E0E8E6BDE0E078
:1000D400E6BDEBBBEABBE8BBE7BBE2BBE1BBE0BF11
:1000E400E3BFE2BFE6BFECBFEFBDEEBDEDBDECBDCF
:1000F400E5BDE4BDEBBDEABDE9BDE8BDEBBFE5BFD1
:10010400E9BFEDB9EBB9E8E1EAB9E6E0E3B9EFE05C
:10011400E2B9EFE9E9B9E0E8E8B9C2DFFECFFFCF21
:00000001FF
