:0800000028C0FECFFDCFFCCFAC
:10000800FBCFFACFF9CFF8CFF7CFF6CFF5CFF4CFB4
:10001800F3CFF2CFF1CFF0CFEFCFEECFEDCF102768
:10002800E80364000A00010000100001100001004C
:100038000A80000042616E677361740008008000E6
:100048003C000400020038000000F894EE27ECBBE6
:10005800E5BFF8E1A4B7A77FA4BFF1BDE1BD8DE07E
:10006800A2E0ED938A95E9F780E8A0E6ED938A95FA
:10007800E9F7E4E4F0E085919591009761F0A591A6
:10008800B59105901590BF01F00105900D9201976B
:10009800E1F7FB01F0CFE0E0E3BBE4BBE5BBEFED4C
:1000A800EDBFC0E815C05D9BFECF0895E881EA93D7
:1000B8003ED05E2E4424451438F4F5DFE42DE30DDC
:1000C800E081ECB94394F7CFEEDF2CB82196089580
:1000D800E0E8E6BDE0E0E6BDEBBBEABBE8BBE7BBBA
:1000E800E4E0E2BBE3E0E1BBE0E0E0BFE3BFE2BFA6
:1000F800E6BFECBFEFBDEEBDEDBDECBDE5BDE4BDBB
:10010800EBBDEABDE9BDE8BDEBBFE5BFE9BFEDB9B1
:10011800EBB9E8E0EAB9E6E0E3B9E7E0E2B9EFEC29
:10012800E9B9E0E8E8B93A92C1DFFDCFFFCFBB27D4
:10013800A991EE276D91662311F0E395FBCF089501
:00000001FF
