:1000000012C0FECFFDCFFCCFFBCFFACFF9CFF8CF98
:10001000F7CFF6CFF5CFF4CFF3CFF2CFF1CFF0CFCC
:10002000EFCFEECFEDCFF894EE27ECBBF1E0FBBFC6
:10003000EBBFE5BFF8E1F1BDE1BD8DE0A2E0BB277C
:10004000ED938A95E9F780E094E0A0E6ED930197BF
:10005000E9F7EFE5EDBFE4E0EEBFC0E6D1E000C0B8
:10006000E0E0E8BBE7BBE0E1E5BBEFE0E4BBE7E0F5
:10007000E2BBE0E0E1BBE3BFE2BFEFBDEEBDEDBD43
:10008000ECBDE7BDE6BDEBBDEABDE9BDE8BDE2BD47
:10009000E5BDE4BDE3BDE5BFE9BFEAB9E0E8E8B925
:1000A000E0E0E0BFE6B9EDB9E6BFE8ECF0E02F0133
:1000B000819904C0F201EC59FF4F2F01829904C0CD
:1000C000E4E6F0E04E1A5F0A809914C0A89A14D0B2
:1000D000A89AA99817D0A89A1AD019D0A99AAA981C
:1000E000AB9A1DD0A99A0ED0A898A99AAA9AAB98B3
:1000F00016D002D0DDCFFFCFA998AA9AAB985A921A
:100100004A9212C0AA98AB985A924A920DC0A998E6
:10011000AA98AB9A5A924A9207D0A89808955A92F0
:100120004A9202D0A8980895E991F991309639F051
:1001300088EE93E00197F1F7A8953197C9F70895F4
:00000001FF
